:100000000C9446000C9465000C9465000C946500FB
:100010000C9465000C9487060C9497060C9465006C
:100020000C9465000C9465000C9465000C946500BC
:100030000C9465000C9465000C9465000C946500AC
:100040000C94BB010C9465000C9435050C94650070
:100050000C9465000C94A6040C9465000C94650047
:100060000C9465000C9465000C9465000C9465007C
:100070000C9465000C9465000C94CA050C94650002
:100080000C9465000C9465000C94650011241FBE4F
:10009000CFEFD0E1DEBFCDBF12E0A0E0B1E0E8EAF3
:1000A000FAE100E00BBF02C007900D92A035B10746
:1000B000D9F712E0A0E5B2E001C01D92A437B10764
:1000C000E1F70E9467000C94520D0C9400000F930E
:1000D0001F93DF93CF93CDB7DEB76B970FB6F8942E
:1000E000DEBF0FBECDBF0E9470010E9494010E942E
:1000F00019020E9485040E94D9040E947106CE0153
:100100000396988F8F8BAAE2B1E0BA8FA98FBDE0DA
:10011000BB8FE98DFA8D0080898D9A8D01969A8F1B
:10012000898FAF89B88D0C92EF89F88D3196F88F51
:10013000EF8BFB8DF150FB8F2B8D222351F787E046
:10014000FE017096DF01282F1D922A95E9F780E0C5
:1001500091E00E94F30480917002909171020097E7
:1001600009F06AC08091720290917302009709F4BD
:10017000B0C00E9498040E94CE049A83898329818A
:100180003A81CE0103960B96B9010E94FE05CE017D
:1001900003960E94F30410927302109272028981F6
:1001A0009A81A2E087329A0718F10AE410E0E6E4A7
:1001B000F0E080819181CC01A0E0B0E0BC01CD01F4
:1001C0000E94860ADC01CB01BC01CD012DEC3CEC88
:1001D0004CE45DE30E94A808DC01CB01BC01CD0129
:1001E0000E94D206DC01CB01F8019183808371C0AB
:1001F0000AE410E0E6E4F0E080819181CC01A0E027
:10020000B0E0BC01CD010E94860ADC01CB01BC013B
:10021000CD012DEC3CEC4CEC5DE30E94A808DC0128
:10022000CB01BC01CD010E94D206DC01CB01D8017B
:1002300011969C938E934DC08091700290917102A3
:100240008130910519F50AE410E0E6E4F0E08081E0
:100250009181CC01A0E0B0E0BC01CD010E94860AF2
:10026000DC01CB01BC01CD012DEC3CEC4CE45DE3A9
:100270000E94A808DC01CB01BC01CD010E94D2067E
:10028000DC01CB01F8019183808323C00AE410E0F4
:10029000E6E4F0E080819181CC01A0E0B0E0BC0117
:1002A000CD010E94860ADC01CB01BC01CD012DEC01
:1002B0003CEC4CEC5DE30E94A808DC01CB01BC01E6
:1002C000CD010E94D206DC01CB01D80111969C938E
:1002D0008E9380917002909171020E942B023BCF0D
:1002E000DF93CF93CDB7DEB7A3E5B0E0E3E5F0E071
:1002F000808187608C93A2E5B0E0E2E5F0E0808148
:10030000816F8C93A7E5B0E0E7E5F0E08081816044
:100310008C93A6E5B0E0E6E5F0E0808181608C9307
:100320007894CF91DF910895DF93CF93CDB7DEB767
:10033000A7E3B0E0E7E3F0E0808180628C93A8E37C
:10034000B0E0E8E3F0E0808180628C93EFE4F0E0DD
:1003500082E88083EEE4F0E08DE18083E6E4F0E083
:1003600080E291E091838083ECE4F0E011821082DE
:10037000CF91DF9108951F920F920FB60F920090C8
:100380005B000F9211242F938F939F93AF93BF9392
:10039000EF93FF93DF93CF93CDB7DEB7F8948091BF
:1003A00056029091570201969093570280935602FD
:1003B000809156029091570223E0883E920751F4B3
:1003C00081E090E090937302809372021092570242
:1003D00010925602A2E5B0E0E2E5F0E08081816F84
:1003E0008C937894CF91DF91FF91EF91BF91AF9172
:1003F0009F918F912F910F9000925B000F900FBEF5
:100400000F901F901895DF93CF93CDB7DEB78091F3
:10041000560290915702CF91DF910895DF93CF93C9
:10042000CDB7DEB71092570210925602CF91DF91EE
:100430000895DF93CF93CDB7DEB7E4E3F0E08FEF1D
:100440008083AAE3B0E0EAE3F0E080818F608C93E0
:10045000CF91DF910895DF93CF93CDB7DEB7C2542C
:10046000D0400FB6F894DEBF0FBECDBFFE01EF5BEC
:10047000FF4F91838083EBE3F0E01082FE01EF5B9E
:10048000FF4F8081918128EE33E0B9010E94F40C86
:10049000CB01FE01FF9691838083EBE3F0E08EEFCA
:1004A0008083A5E3B0E0FE01FF9680819181FC018D
:1004B000E25CFE4F80818C9380E090E0A0EAB0E4A3
:1004C0008DAB9EABAFABB8AF6DA97EA98FA998AD30
:1004D00026E636E646E655E40E94A808DC01CB0194
:1004E00089AB9AABABABBCAB69A97AA98BA99CA928
:1004F00020E030E040E85FE30E94020A88232CF409
:1005000081E090E098AB8FA73FC069A97AA98BA939
:100510009CA920E03FEF4FE757E40E94A20918167C
:100520004CF56DA97EA98FA998AD20E030E040E29E
:1005300051E40E94A808DC01CB01BC01CD010E945E
:10054000D206DC01CB0198AB8FA70FC080E791E00A
:100550009EA78DA78DA59EA50197F1F79EA78DA7B4
:100560008FA598A9019798AB8FA78FA598A90097F9
:1005700069F714C069A97AA98BA99CA90E94D2061F
:10058000DC01CB0198AB8FA78FA598A99CA78BA75F
:100590008BA59CA50197F1F79CA78BA7FE01EF5BAC
:1005A000FF4F8081918124E630E0B9010E94F40C74
:1005B000CB012AE030E0B9010E94F40C9EAF8DAF70
:1005C000EBE3F0E08DEF8083A5E3B0E08DAD9EAD71
:1005D000FC01E25CFE4F80818C9380E090E0A0EA19
:1005E000B0E48FA398A7A9A7BAA76FA178A589A5FA
:1005F0009AA526E636E646E655E40E94A808DC0100
:10060000CB018BA39CA3ADA3BEA36BA17CA18DA1A9
:100610009EA120E030E040E85FE30E94020A8823C8
:100620002CF481E090E09AA389A33FC06BA17CA148
:100630008DA19EA120E03FEF4FE757E40E94A20961
:1006400018164CF56FA178A589A59AA520E030E091
:1006500040E251E40E94A808DC01CB01BC01CD01BD
:100660000E94D206DC01CB019AA389A30FC080E7C8
:1006700091E098A38F8F8F8D98A10197F1F798A3A0
:100680008F8F89A19AA101979AA389A389A19AA181
:10069000009769F714C06BA17CA18DA19EA10E9457
:1006A000D206DC01CB019AA389A389A19AA19E8FCE
:1006B0008D8F8D8D9E8D0197F1F79E8F8D8FFE0111
:1006C000EF5BFF4F808191812AE030E0B9010E9409
:1006D000F40CCB012AE030E0B9010E94F40C9CAF8D
:1006E0008BAFEBE3F0E08BEF8083A5E3B0E08BAD65
:1006F0009CADFC01E25CFE4F80818C9380E090E039
:10070000A0EAB0E4898F9A8FAB8FBC8F698D7A8D08
:100710008B8D9C8D26E636E646E655E40E94A808B9
:10072000DC01CB018D8B9E8BAF8BB88F6D897E8961
:100730008F89988D20E030E040E85FE30E94020A54
:1007400088232CF481E090E09C8B8B8B3FC06D89DB
:100750007E898F89988D20E03FEF4FE757E40E9414
:10076000A20918164CF5698D7A8D8B8D9C8D20E031
:1007700030E040E251E40E94A808DC01CB01BC015A
:10078000CD010E94D206DC01CB019C8B8B8B0FC06C
:1007900080E791E09A8B898B89899A890197F1F793
:1007A0009A8B898B8B899C8901979C8B8B8B8B89EE
:1007B0009C89009769F714C06D897E898F89988D0F
:1007C0000E94D206DC01CB019C8B8B8B8B899C8990
:1007D000988B8F878F8598890197F1F7988B8F87F2
:1007E000FE01EF5BFF4F808191812AE030E0B9018B
:1007F0000E94F40C9AAF89AFEBE3F0E087EF8083BF
:10080000A5E3B0E089AD9AADFC01E25CFE4F8081CA
:100810008C9380E090E0A0EAB0E48B879C87AD8762
:10082000BE876B857C858D859E8526E636E646E609
:1008300055E40E94A808DC01CB018F839887A98723
:10084000BA876F81788589859A8520E030E040E815
:100850005FE30E94020A88232CF481E090E09E83EB
:100860008D833FC06F81788589859A8520E03FEF31
:100870004FE757E40E94A20918164CF56B857C855A
:100880008D859E8520E030E040E251E40E94A8087A
:10089000DC01CB01BC01CD010E94D206DC01CB0101
:1008A0009E838D830FC080E791E09C838B838B8137
:1008B0009C810197F1F79C838B838D819E810197A9
:1008C0009E838D838D819E81009769F714C06F810F
:1008D000788589859A850E94D206DC01CB019E83AA
:1008E0008D838D819E819A83898389819A810197E5
:1008F000F1F79A838983CE5BDF4F0FB6F894DEBFA2
:100900000FBECDBFCF91DF910895DF93CF93CDB7C9
:10091000DEB7A6E2B0E0E6E2F0E080818B6C8C937B
:10092000E4E2F0E0118210827894CF91DF91089593
:10093000DF93CF93CDB7DEB7A6E2B0E0E6E2F0E01A
:10094000808180648C93CF91DF9108951F920F92E4
:100950000FB60F9200905B000F9211248F939F931C
:10096000EF93FF93DF93CF93CDB7DEB7F894E4E234
:10097000F0E08081918190935D0280935C02789495
:10098000CF91DF91FF91EF919F918F910F90009206
:100990005B000F900FBE0F901F901895DF93CF93C1
:1009A000CDB7DEB780915C0290915D02CF91DF916F
:1009B0000895DF93CF93CDB7DEB7AAE2B0E0EAE2C5
:1009C000F0E0808188698C93A5E9B0E0E5E9F0E08A
:1009D000808186608C93E9E2F0E087E08083789400
:1009E000CF91DF910895DF93CF9300D0CDB7DEB7DD
:1009F0009A8389830AC0E981FA8180810E940F0568
:100A000089819A8101969A838983E981FA8180811B
:100A1000882389F70F900F90CF91DF910895DF938E
:100A2000CF930F92CDB7DEB78983EBE2F0E0808100
:100A3000882F90E0807290700097B9F3ECE2F0E0BC
:100A4000898180830F90CF91DF910895DF93CF93B9
:100A5000CDB7DEB7EBE2F0E080818823DCF7ECE293
:100A6000F0E08081CF91DF9108951F920F920FB631
:100A70000F9200905B000F9211242F933F934F939E
:100A80005F936F937F938F939F93AF93BF93EF93F6
:100A9000FF93DF93CF93CDB7DEB7F8940E9426057E
:100AA000882F90E0C09790937102809370027894A1
:100AB000CF91DF91FF91EF91BF91AF919F918F9176
:100AC0007F916F915F914F913F912F910F90009285
:100AD0005B000F900FBE0F901F901895DF93CF9380
:100AE000CDB7DEB7AAE9B0E0EAE9F0E08081886935
:100AF0008C93ADE9B0E0EDE9F0E0808186608C9305
:100B0000E9E9F0E087E080837894CF91DF91089560
:100B1000DF93CF9300D0CDB7DEB79A8389830AC025
:100B2000E981FA8180810E94A40589819A810196D8
:100B30009A838983E981FA818081882389F70F90DC
:100B40000F90CF91DF910895DF93CF930F92CDB7A0
:100B5000DEB78983EBE9F0E08081882F90E0807236
:100B600090700097B9F3ECE9F0E0898180830F90F1
:100B7000CF91DF910895DF93CF93CDB7DEB7EBE947
:100B8000F0E080818823DCF7ECE9F0E08081CF9110
:100B9000DF9108951F920F920FB60F9200905B00A5
:100BA0000F9211242F933F934F935F936F937F93F3
:100BB0008F939F93AF93BF93EF93FF93DF93CF9365
:100BC000CDB7DEB7F8940E94BB050E940F0578945C
:100BD000CF91DF91FF91EF91BF91AF919F918F9155
:100BE0007F916F915F914F913F912F910F90009264
:100BF0005B000F900FBE0F901F901895DF93CF935F
:100C000000D000D0CDB7DEB79A8389837C836B8315
:100C10008B819C8128EE33E0B9010E94080DCB0145
:100C2000805DE981FA81808389819A8101969A8326
:100C300089838B819C8124E630E0B9010E94080DF4
:100C4000CB012AE030E0B9010E94080D805DE98106
:100C5000FA81808389819A8101969A8389838B8125
:100C60009C812AE030E0B9010E94080DCB012AE006
:100C700030E0B9010E94080D805DE981FA8180832E
:100C800089819A8101969A8389838B819C812AE04C
:100C900030E0B9010E94080D805DE981FA8180830E
:100CA00089819A8101969A838983E981FA818AE010
:100CB000808389819A8101969A838983E981FA8167
:100CC0008DE0808389819A8101969A838983E98165
:100CD000FA8110820F900F900F900F90CF91DF91BB
:100CE0000895DF93CF93CDB7DEB7A9E5B0E0E9E58E
:100CF000F0E0808180638C93AAE5B0E0EAE5F0E063
:100D000080818F608C937894CF91DF9108951F92AA
:100D10000F920FB60F921124DF93CF93CDB7DEB7AA
:100D2000CF91DF910F900FBE0F901F9018951F92DB
:100D30000F920FB60F9211248F939F93DF93CF934F
:100D4000CDB7DEB7F8948091700290917102009750
:100D500051F480917002909171020196909371020A
:100D60008093700215C08091700290917102813061
:100D7000910551F4809170029091710201969093C7
:100D800071028093700204C010927102109270027E
:100D90007894CF91DF919F918F910F900FBE0F901C
:100DA0001F901895EF92FF920F931F937B018C0178
:100DB00020E030E040E05FE40E94D20988238CF01C
:100DC000C801B70120E030E040E05FE40E944A083B
:100DD0000E94320A9B01AC012050304040405048F4
:100DE00006C0C801B7010E94320A9B01AC01B901DB
:100DF000CA011F910F91FF90EF900895A0E0B0E01D
:100E0000E4E0F7E00C941B0DDC012B01FA019C914E
:100E1000923008F439C1EB018881823008F433C183
:100E2000943069F4843009F02FC111969C91119788
:100E30008981981709F428C1A8E4B1E025C184305C
:100E400009F421C18230A9F4923009F01DC19A0140
:100E5000AD0188E0EA010990AE01E90109929E0125
:100E60008150C1F7E201898111969C918923818388
:100E700008C1923009F407C112962D903C90139747
:100E8000EB018A819B811496AD90BD90CD90DC9052
:100E90001797EC80FD800E811F819101281B390B73
:100EA000B90137FF04C066277727621B730B6032D6
:100EB00071050CF061C0121613066CF5370148017C
:100EC000062E04C096948794779467940A94D2F778
:100ED00021E030E040E050E004C0220F331F441F07
:100EE000551F6A95D2F721503040404050402E2186
:100EF0003F2140235123211531054105510521F0A2
:100F000021E030E040E050E079018A01E628F7284E
:100F1000082919293CC0232BD1F1260E371E350193
:100F20004601062E04C096948794779467940A9499
:100F3000D2F721E030E040E050E004C0220F331F40
:100F4000441F551F6A95D2F7215030404040504011
:100F50002A213B214C215D212115310541055105F7
:100F600021F021E030E040E050E059016A01A6287C
:100F7000B728C828D9280BC0821593052CF01C016E
:100F8000AA24BB24650103C0EE24FF248701119627
:100F90009C91D20111968C91981709F445C0992320
:100FA00039F0A80197012A193B094C095D0906C0CF
:100FB000A60195012E193F09400B510B57FD08C0A2
:100FC00011823382228224833583468357831DC056
:100FD00081E081833382228288279927DC01821B6A
:100FE000930BA40BB50B84839583A683B7830DC0A5
:100FF000220F331F441F551F248335834683578395
:1010000082819381019793838283248135814681F4
:101010005781DA01C9010197A109B1098F5F9F4F7B
:10102000AF4FBF4328F30BC0918333822282EA0C77
:10103000FB1C0C1D1D1DE482F5820683178383E0D3
:101040008083248135814681578157FF1AC0C901A9
:10105000AA2797FDA095BA2F81709070A070B070EC
:101060005695479537952795822B932BA42BB52B17
:1010700084839583A683B78382819381019693832A
:101080008283DF0101C0D201CD01CDB7DEB7E2E13D
:101090000C94370DA0E2B0E0E0E5F8E00C94270DE9
:1010A00069837A838B839C832D833E834F83588708
:1010B000E9E0EE2EF12CEC0EFD1ECE010196B701FB
:1010C0000E94230C8E010F5E1F4FCE010596B801C2
:1010D0000E94230C8A8991E089278A8BC701B80175
:1010E000AE01475E5F4F0E94FE060E944E0BA09627
:1010F000E6E00C94430DA0E2B0E0E1E8F8E00C94E7
:10110000270D69837A838B839C832D833E834F8352
:101110005887F9E0EF2EF12CEC0EFD1ECE01019662
:10112000B7010E94230C8E010F5E1F4FCE01059662
:10113000B8010E94230CC701B801AE01475E5F4FA2
:101140000E94FE060E944E0BA096E6E00C94430D12
:10115000A0E2B0E0EEEAF8E00C941B0D69837A831C
:101160008B839C832D833E834F835887CE010196CA
:10117000BE01675F7F4F0E94230CCE010596BE0122
:101180006F5E7F4F0E94230C9985923088F0898989
:101190008230C8F0943019F4823051F404C08430A5
:1011A00029F4923081F488E491E0C6C0923049F489
:1011B00020E09A858A89981321E02A87CE01099632
:1011C000BBC0823049F420E09A858A89981321E0D7
:1011D0002A8BCE014196B0C02D843E844F8458881E
:1011E0006D887E888F88988CEE24FF248701AA243E
:1011F000BB24650140E050E060E070E0E0E0F0E03A
:10120000C10181709070892BE9F0E60CF71C081D74
:10121000191D9A01AB012A0D3B1D4C1D5D1D80E07F
:1012200090E0A0E0B0E0E614F7040805190520F40A
:1012300081E090E0A0E0B0E0BA01A901480F591F99
:101240006A1F7B1FAA0CBB1CCC1CDD1C97FE08C0B0
:1012500081E090E0A0E0B0E0A82AB92ACA2ADB2AFF
:101260003196E032F10549F0660C771C881C991C18
:101270005694479437942794C3CFFA85EA892B89EB
:101280003C898B859C85280F391F2E5F3F4F17C0E7
:10129000CA0181709070892B61F016950795F794BB
:1012A000E79480E090E0A0E0B0E8E82AF92A0A2B71
:1012B0001B2B76956795579547952F5F3F4F77FD89
:1012C000E7CF0CC0440F551F661F771F17FD416005
:1012D000EE0CFF1C001F111F21503040403090E0E9
:1012E000590790E0690790E4790760F32B8F3C8FF2
:1012F000DB01CA018F779070A070B07080349105C7
:10130000A105B10561F447FD0AC0E114F10401052E
:10131000110529F0405C5F4F6F4F7F4F40781A8E68
:10132000FE1711F081E08A8F4D8F5E8F6F8F78A34B
:1013300083E0898FCE0149960E944E0BA096E2E190
:101340000C94370DA8E1B0E0E8EAF9E00C94270D21
:1013500069837A838B839C832D833E834F83588755
:1013600089E0E82EF12CEC0EFD1ECE010196B701AE
:101370000E94230C8E010F5E1F4FCE010596B8010F
:101380000E94230C8985823040F08989823028F0C0
:10139000C701B8010E949B0C01C08FEF6896E6E080
:1013A0000C94430DA8E1B0E0E8EDF9E00C94270DB2
:1013B00069837A838B839C832D833E834F835887F5
:1013C00089E0E82EF12CEC0EFD1ECE010196B7014E
:1013D0000E94230C8E010F5E1F4FCE010596B801AF
:1013E0000E94230C8985823040F08989823028F060
:1013F000C701B8010E949B0C01C08FEF6896E6E020
:101400000C94430DA8E1B0E0E8E0FAE00C94270D5D
:1014100069837A838B839C832D833E834F83588794
:1014200089E0E82EF12CEC0EFD1ECE010196B701ED
:101430000E94230C8E010F5E1F4FCE010596B8014E
:101440000E94230C8985823040F08989823028F0FF
:10145000C701B8010E949B0C01C081E06896E6E0DC
:101460000C94430DACE0B0E0E8E3FAE00C942B0DF3
:1014700069837A838B839C83CE010196BE016B5F67
:101480007F4F0E94230C8D81823061F1823050F1B8
:10149000843021F48E81882351F12EC02F8138852C
:1014A00037FD20C06E812F3131051CF06623F9F025
:1014B00023C08EE190E0821B930B29853A854B85F2
:1014C0005C8504C056954795379527958A95D2F740
:1014D0006623B1F050954095309521953F4F4F4F81
:1014E0005F4F0EC020E030E040E050E009C02FEF39
:1014F0003FEF4FEF5FE704C020E030E040E050E80E
:10150000B901CA012C96E2E00C94470DA8E0B0E0C6
:10151000ECE8FAE00C94230D7B018C016115710558
:101520008105910519F482E0898360C083E0898395
:101530008EE1C82ED12CDC82CB82ED82FE820F831D
:101540001887C801B7010E94FF0AFC013197F7FF15
:101550003BC0222733272E1B3F0B57016801022E69
:1015600004C0D694C794B794A7940A94D2F740E0E5
:1015700050E060E070E081E090E0A0E0B0E004C006
:10158000880F991FAA1FBB1F2A95D2F70197A1099F
:10159000B1098E219F21A023B1230097A105B10598
:1015A00021F041E050E060E070E04A295B296C29BD
:1015B0007D294D835E836F8378878EE190E08E1B5B
:1015C0009F0B9C838B8312C0309781F00E2E04C03A
:1015D000EE0CFF1C001F111F0A94D2F7ED82FE8251
:1015E0000F831887CE1ADF0ADC82CB821A82CE01E3
:1015F00001960E944E0B2896EAE00C943F0DEF9264
:10160000FF920F931F937B018C0180E0E81680E02E
:10161000F80681E0080780E0180788F48FEFE816E5
:10162000F1040105110531F028F088E090E0A0E018
:10163000B0E017C080E090E0A0E0B0E012C080E031
:10164000E81680E0F80680E0080781E0180728F037
:1016500088E190E0A0E0B0E004C080E190E0A0E08C
:10166000B0E020E230E040E050E0281B390B4A0BAC
:101670005B0B04C016950795F794E7948A95D2F70B
:10168000F701E05BFE4F8081281B310941095109B8
:10169000C9011F910F91FF90EF900895DF92EF9293
:1016A000FF920F931F93FC01E480F5800681178160
:1016B000D1808081823048F480E090E0A0E1B0E009
:1016C000E82AF92A0A2B1B2BA5C0843009F49FC0F5
:1016D000823021F4EE24FF24870105C0E114F104D7
:1016E0000105110519F4E0E0F0E096C06281738114
:1016F0009FEF623879070CF05BC022E83FEF261BB2
:10170000370B2A3131052CF020E030E040E050E08A
:101710002AC0B801A701022E04C076956795579597
:1017200047950A94D2F781E090E0A0E0B0E004C0D1
:10173000880F991FAA1FBB1F2A95D2F70197A109ED
:10174000B1098E219F21A023B1230097A105B105E6
:1017500021F081E090E0A0E0B0E09A01AB01282BFD
:10176000392B4A2B5B2BDA01C9018F779070A0705F
:10177000B07080349105A105B10539F427FF09C087
:10178000205C3F4F4F4F5F4F04C0215C3F4F4F4F96
:101790005F4FE0E0F0E02030A0E03A07A0E04A0729
:1017A000A0E45A0710F0E1E0F0E079018A0127C0D7
:1017B0006038710564F5FB01E158FF4FD801C7019E
:1017C0008F779070A070B07080349105A105B1053D
:1017D00039F4E7FE0DC080E490E0A0E0B0E004C082
:1017E0008FE390E0A0E0B0E0E80EF91E0A1F1B1F97
:1017F00017FF05C016950795F794E794319687E093
:1018000016950795F794E7948A95D1F705C0EE24CD
:10181000FF248701EFEFF0E06E2F6795662767954D
:10182000902F9F77D794DD24D7948E2F8695492FBC
:10183000462B582F5D29B701CA011F910F91FF90C8
:10184000EF90DF900895FC01DB01408151812281FE
:10185000622F6F7770E0221F2227221F9381892F2A
:10186000880F822B282F30E0991F9927991F1196F6
:101870009C93119721153105A9F541155105610575
:10188000710511F482E037C082E89FEF13969C93B4
:101890008E9312979A01AB0167E0220F331F441F0A
:1018A000551F6A95D1F783E08C930DC0220F331F2B
:1018B000441F551F12968D919C9113970197139673
:1018C0009C938E931297203080E0380780E0480781
:1018D00080E4580758F314962D933D934D935C93F1
:1018E000179708952F3F310579F44115510561058A
:1018F000710519F484E08C93089564FF03C081E0BE
:101900008C9312C01C9210C02F57304013963C93FA
:101910002E93129783E08C9387E0440F551F661F28
:10192000771F8A95D1F7706414964D935D936D93EC
:101930007C93179708951F93DC01FB019C919230D3
:1019400008F447C08081823008F443C0943051F4D9
:1019500011961C91843099F58181682F70E0611B8C
:1019600071093FC0843021F0923031F48230B9F1F6
:101970008181882389F12DC011961C9111978230A5
:10198000F1F081811817D9F412962D913C9113979B
:10199000828193818217930794F028173907BCF04E
:1019A00014968D919D910D90BC91A02D248135812F
:1019B00046815781281739074A075B0718F4112316
:1019C00041F00AC082179307A407B50740F411231A
:1019D00019F061E070E005C06FEF7FEF02C060E0DA
:1019E00070E0CB011F910895AA1BBB1B51E107C0FA
:1019F000AA1FBB1FA617B70710F0A61BB70B881F9F
:101A0000991F5A95A9F780959095BC01CD0108952D
:101A100097FB092E07260AD077FD04D0E5DF06D014
:101A200000201AF4709561957F4F0895F6F7909510
:101A300081959F4F08952F923F924F925F926F92A0
:101A40007F928F929F92AF92BF92CF92DF92EF924E
:101A5000FF920F931F93CF93DF93CDB7DEB7CA1BCF
:101A6000DB0B0FB6F894DEBF0FBECDBF09942A88FA
:101A7000398848885F846E847D848C849B84AA84A2
:101A8000B984C884DF80EE80FD800C811B81AA812F
:101A9000B981CE0FD11D0FB6F894DEBF0FBECDBFFA
:081AA000ED010895F894FFCF59
:101AA800696620796F752073656C656374206D6F46
:101AB80064652C207072657373203A202330202CC3
:101AC8002023312C2023320D0A00436473207661D1
:101AD8006C7565203A2000000000000000003F06F9
:101AE8005B4F666D7D277F6F0000000000000000DF
:101AF80000010202030303030404040404040404AD
:101B0800050505050505050505050505050505057D
:101B1800060606060606060606060606060606065D
:101B2800060606060606060606060606060606064D
:101B3800070707070707070707070707070707072D
:101B4800070707070707070707070707070707071D
:101B5800070707070707070707070707070707070D
:101B680007070707070707070707070707070707FD
:101B780008080808080808080808080808080808DD
:101B880008080808080808080808080808080808CD
:101B980008080808080808080808080808080808BD
:101BA80008080808080808080808080808080808AD
:101BB800080808080808080808080808080808089D
:101BC800080808080808080808080808080808088D
:101BD800080808080808080808080808080808087D
:101BE800080808080808080808080808080808086D
:00000001FF
